:100000000C942A000C9447000C9447000C94470071
:100010000C9447000C9447000C9447000C94470044
:100020000C9447000C947D040C9447000C944700FA
:100030000C9447000C9447000C9447000C94470024
:100040000C9447000C9447000C9447000C94470014
:100050000C94470011241FBECFE5D4E0DEBFCDBF16
:1000600011E0A0E6B0E0ECE4FAE002C005900D92E9
:10007000AC3BB107D9F711E0ACEBB1E001C01D9288
:10008000AB3CB107E1F70E943E040C9424050C94AC
:10009000000080EE8ABB80E184BB8CEF81BB8FE1E6
:1000A0008BBB8FEE85BB12BA089508958FB5826021
:1000B0008FBD8EB589618EBD8FE19EE497BD86BDF3
:1000C0001DBC1CBC089580E18A95F1F700C0929A8E
:1000D000939880E18A95F1F700C008958FB580620A
:1000E0008FBD88E893E199BD88BD08958FB58F7D58
:1000F0008FBD19BC18BC089580E18A95F1F700C046
:1001000092989398949880E18A95F1F700C00895A9
:1001100080E18A95F1F700C0979A969880E18A95D8
:10012000F1F700C008958FB580688FBD88E893E12E
:100130009BBD8ABD08958FB58F778FBD1BBC1ABC40
:1001400008959698979895980895AC989D995FC052
:100150009E995DC09F995BC081E08093BF018093B1
:10016000BE018093BD0108959E9953C09F9B51C0CD
:1001700081E08093BF018093BE011092BD0108957C
:100180009E9949C09F9947C01092BF0181E080931A
:10019000BE018093BD0108959E9B3FC09F993DC0C5
:1001A00081E08093BF011092BE018093BD0108954C
:1001B0009E9B35C09F9B33C081E08093BF0110920E
:1001C000BE011092BD0108959E992BC09F9B29C02E
:1001D0001092BF0181E08093BE011092BD0108958D
:1001E0009E9B21C09F991FC01092BF011092BE011B
:1001F00081E08093BD0108959E9B17C09F9B15C011
:100200001092BF011092BE011092BD0108959D9BF6
:10021000ABCF9D99B5CF9D9BBFCF9D9BC9CF9D99DE
:10022000D3CF9D99DDCF9D99E7CF0895089583B7EA
:10023000836083BF89B7816089BF12BE089583B789
:100240008E7F83BF83B78D7F83BF89B78E7F89BF42
:1002500089EF90E00197F1F700C0000012BE089509
:100260001092BC011092C4011092C3011092C201FD
:100270001092C1011092C0011092BF011092BE01F4
:100280001092BD011092CA011092C9011092C801CA
:100290001092C7011092C6011092C5018FE18BBB6D
:1002A0008FEE85BB12BA0895599860E070E080EA3D
:1002B00090E40E94C10470BD69B98AB188618AB9AD
:1002C00056985798559880B5886080BD80B58062F3
:1002D00080BD80B5866080BD08955F9BFECF8CB1E8
:1002E0008093C20108955D9BFECF8CB908958DED7A
:1002F0000E94730108958CEC0E9473010895DD9AA9
:10030000000000008BB3807C8BBB089517BADE9A87
:100310008BB31BBAC79B04C00E947F01C799FCCF57
:100320008FEF87BB0895CF93C82F0E948601C8BB6B
:100330008BB38F738BBB0E947F0118BACF91089546
:10034000CF93C82F0E948601C8BBDE98DF9A0E9417
:100350007F0118BACF910895CF93DF93EC01888184
:10036000882361F021960E94A00187E893E101971C
:10037000F1F700C0000089918823A9F7DF91CF91A0
:10038000089581E00E94930183EF91E00197F1F7D6
:1003900000C0000008958AB3806E8ABB85EA9EE0A3
:1003A0000197F1F700C000000E94C10188E30E949C
:1003B000930190E19A95F1F700C08CE00E949301BF
:1003C00080E18A95F1F700C0089580E80E949301CA
:1003D00080E18A95F1F700C0089580EC0E949301B6
:1003E00080E18A95F1F700C008950E946D01809127
:1003F000C2018E3DE1F480E18A95F1F700C00E94D0
:10040000C1010E94E50180E690E00E94AC0100C0BD
:1004100000C000000E94ED0181E790E00E94AC0165
:1004200083ED90E30197F1F700C0000008958D3E41
:10043000E1F690E19A95F1F700C00E94C1010E9497
:10044000E50181E890E00E94AC0100C000C000001E
:100450000E94ED0182E990E00E94AC0183ED90E3FF
:100460000197F1F700C0000008958091C00181302C
:1004700029F589E60E94730100C000C000008CECE1
:100480000E94730180E18A95F1F700C00E94C101CA
:100490000E94E50182EA90E00E94AC0100C000C029
:1004A00000000E94ED0180EB90E00E94AC0183ED22
:1004B00090E30197F1F700C000000895882321F52B
:1004C00089E60E94730100C000C000008DED0E940B
:1004D000730190E19A95F1F700C00E94C1010E945A
:1004E000E5018DEB90E00E94AC0100C000C000006F
:1004F0000E94ED018AEC90E00E94AC0183ED90E354
:100500000197F1F700C0000008958091C301813088
:1005100019F40E9435020895823039F40E94760061
:100520000E947C000E9435020895833039F40E94B5
:100530009B000E94A1000E9435020895843011F4AE
:100540000E94350208958091C301813049F489B336
:1005500080FDFDCF81E08093C0010E948502089557
:10056000823041F4C999FECF81E08093C0010E949E
:1005700085020895833041F4CA99FECF81E08093CB
:10058000C0010E9485020895843021F41092C001B8
:100590000E948502089500C000C000000E94C101B1
:1005A0000E94E5018BED90E00E94AC0100C000C00C
:1005B00000000E94ED018CEE90E00E94AC0183ED02
:1005C00090E30197F1F700C000000895813081F4B5
:1005D0000E94CB0281E10E94730180E18A95F1F7CC
:1005E00000C081E10E94730181E08093C3010895FE
:1005F0008230A1F40E94CB0282E20E94730190E15A
:100600009A95F1F700C082E20E9473010E94630094
:100610000E946E0082E08093C30108958330A1F4AC
:100620000E94CB0283E30E94730180E18A95F1F777
:1006300000C083E30E9473010E9488000E9493001F
:1006400083E08093C3010895843041F590E19A9549
:10065000F1F700C00E94C1010E94E5018CEF90E01B
:100660000E94AC0100C000C000000E94ED018AE0C1
:1006700091E00E94AC0183ED90E30197F1F700C097
:10068000000084E40E94730190E19A95F1F700C0A4
:1006900084E40E94730184E08093C3010895989BD1
:1006A000FECF999BFCCF9A9BFACF9B9BF8CF1092E1
:1006B000C40183B380FD1CC081E08093C40180919C
:1006C000BF01882321F481E00E94E6020895813071
:1006D00009F057C08091BC01882319F40E94C2031D
:1006E0000895813009F04DC084E00E94E60208952B
:1006F00099991AC081E08093C4018091BE0188233A
:1007000021F482E00E94E60208958130D1F58091C3
:10071000BC01882319F40E94C2030895813089F531
:1007200084E00E94E60208959A991AC081E08093BD
:10073000C4018091BD01882321F483E00E94E60278
:1007400008958130F1F48091BC01882319F40E944E
:10075000C20308958130A9F484E00E94E60208955E
:100760009B99A7CF81E08093C4018091BC01813027
:1007700021F484E00E94E6020895882311F40E9487
:100780004F0308958091BC01882319F481E0809380
:10079000BC0180E18A95F1F700C00E94C1010E946E
:1007A000E5018BE191E00E94AC0100C000C00000B7
:1007B0000E94ED0189E291E00E94AC01A3EDB0E35B
:1007C0001197F1F700C000008FE799EAA3E081508C
:1007D0009040A040E1F700C0000090E19A95F1F749
:1007E00000C00E94C1010E94E50186E391E00E94E1
:1007F000AC0100C000C000000E94ED0187E491E060
:100800000E94AC01A3EDB0E31197F1F700C0000026
:10081000AC9A0E944F03089500C000C000000E94DF
:10082000C1010E94E50188E591E00E94AC0100C091
:1008300000C000000E94ED018AE691E00E94AC0138
:100840008FE799EAA3E081509040A040E1F700C013
:1008500000000E94C1010E94E5018BE791E00E9427
:10086000AC0100C000C000000E94ED018CE891E0E6
:100870000E94AC0100C000C0000008950E94490021
:100880000E94CB010E9456000E9454017894CDE949
:10089000D1E00BEA11E01092BC010E94A5000E9479
:1008A0000C040E946D010E946D018091C2018A3C7E
:1008B00009F51092C20100C000C000000E94C101F1
:1008C0000E94E501CE010E94AC0100C000C0000002
:1008D0000E94ED01C8010E94AC0183ED90E30197F5
:1008E000F1F700C000000E944F030E94A3020E9483
:1008F000F501D1CF0E943001D4CF1F920F920FB6D5
:100900000F9211248F939F938091C9019091CA01F6
:1009100001969093CA018093C9018091C901909179
:10092000CA018D33910531F51092CA011092C901A7
:100930008091C7019091C80101969093C80180935E
:10094000C7018091C7019091C8018A30910521F4B7
:1009500081E08093C6010EC08091C7019091C801CB
:100960008431910539F41092C8011092C70181E0D9
:100970008093C5019F918F910F900FBE0F901F9094
:10098000189541D0A8F19E57A8F1985160F039F11F
:10099000983070F5092E9927660F771F881F991FC9
:1009A0000A94D1F71CC0BB27993F4CF4B111B1E0B8
:1009B000B62B672F782F8827985FB1F708C08695E8
:1009C00077956795B79508F4B1609395C1F7BB0F1C
:1009D00030F411F460FF03C06F5F7F4F8F4F3EF420
:1009E00090958095709561957F4F8F4F9F4F08959B
:1009F000689424C022C057FD9058440F551F59F0E9
:100A00005F3F71F04795880F97FB991F61F09F3FFB
:100A100079F087950895121613061406551FF2CF24
:100A20004695F1DF08C0161617061806991FF1CF74
:100A300086957105610508940895E894BB2766279B
:0C0A40007727CB0197F90895F894FFCFB9
:100A4C005448414E4B20594F552E2E2E484F504551
:100A5C0000544F2053454520594F5520534F4F4E6E
:100A6C00004552524F522D34303420504C45415396
:100A7C00450020202054525920414741494E202006
:100A8C0020005448414E4B20594F5520464F5200A0
:100A9C00594F555220535550504F525400455252B5
:100AAC004F52203430342E2E2E00504C454153459D
:100ABC002054525920414741494E0068616E6720CD
:100ACC006F6E20706C656173652E2E006469737097
:100ADC0061746368696E672E2E2E2E00204E4F5760
:100AEC002054484520434F494E0057494C4C204216
:100AFC00452052455455524E45440020534F5252B6
:100B0C00592042524F202121004F5554204F46204E
:100B1C0053544F434B0070757368205245545552D3
:100B2C004E20434F494E004F522042555920414EC2
:100B3C004F544845522031002041555354494E20C2
:100B4C004D414348494E45532000544543484E4F70
:100B5C004C4F475920414845414400496E736572DA
:100B6C00742031302052555045455300636F696EE7
:100B7C0020746F20707572636861736500434F4910
:100B8C004E204143434550544544002053454C4569
:0C0B9C0043542050524F44554354000075
:00000001FF
