S01A0000564D322E3161746D656761384D41535445522E7372656363
S113000012C02CC02BC02AC029C028C027C026C0BB
S113001025C00DC223C022C021C020C01FC01EC0E5
S11300201DC01CC01BC011241FBECFE5D4E0DEBF21
S1130030CDBF10E0A0E6B0E0E0E8F5E002C0059036
S11300400D92A036B107D9F710E0A0E6B0E001C0E8
S11300501D92AC36B107E1F7DBD190C2D1CF8FEF5F
S113006087BB18BA88E384BB87E085BB8CEF81BB70
S113007012BA0895599860E070E080EA90E41BD2C7
S113008070BD69B98AB188618AB980B5886080BD5C
S113009080B5806280BD80B5866080BD08955F9B19
S11300A0FECF8CB180936B0008955D9BFECF8CB91D
S11300B008958FB582608FBD8EB589618EBD8FE145
S11300C09EE497BD86BD1DBC1CBC08959A99FECFC5
S11300D0AD9A81E08093610008958FEB97E2A9E0E7
S11300E081509040A040E1F700C00000089580E1F5
S11300F08A95F1F700C0C49AC59880E18A95F1F712
S113010000C0089580E18A95F1F700C0C59AC498AB
S113011080E18A95F1F700C008958FB580628FBDA4
S113012088E893E199BD88BD08958FB58F7D8FBD13
S113013019BC18BC089580E18A95F1F700C0C298F3
S1130140C498C59880E18A95F1F700C00895DADF74
S1130150E4DFC3DFEADFEFDF0895C9DFDEDFBDDF01
S1130160E4DFE9DF089580E18A95F1F700C0C09AE1
S1130170C39880E18A95F1F700C008958FB580682F
S11301808FBD88E893E19BBD8ABD08958FB58F77B5
S11301908FBD1BBC1ABC0895C198C098C39808951C
S11301A083B7836083BF89B7816089BF12BE089516
S11301B083B78E7F83BF83B78D7F83BF89B78E7FDD
S11301C089BF89EF90E00197F1F700C0000012BEEB
S11301D0089565DF80916B00813131F481E0809373
S11301E06A00C1DFCBDF0895823221F482E080937C
S11301F06A000895833321F483E080936A000895AC
S1130200843439F784E080936A00089548DF12BA91
S113021080916B008C3CF1F480916A00813061F430
S1130220B5DFBADF83ED90E30197F1F700C000007A
S11302308EED3BDF92DF0895982F9250923020F498
S11302408EED33DF8ADF0895843001F78DEE2DDFE4
S11302507EDF08958D3DD1F680916A00813061F48E
S113026095DF9ADF83ED90E30197F1F700C000007A
S11302708DEE1BDF6CDF0895982F9250923020F49E
S11302808DEE13DF64DF0895843009F0BFCF8DEE67
S11302900CDF5DDF0895CF93DF93CDB7DEB72797EB
S11302A00FB6F894DEBF0FBECDBF1F821E821D8223
S11302B01C821B821A82198212BA87E085BB18BA83
S11302C083ED90E30197F1F700C0000027960FB685
S11302D0F894DEBF0FBECDBFDF91CF910895CF93C9
S11302E0DF93DCEFC1E0999907C0AC9A81E0809379
S11302F06200DF91CF9108959A99F5CFD2BB8FE731
S11303009AE1A6E081509040A040E1F700C00000CF
S113031012BAC093610080916300882321F0809118
S11303206200882301F713DFB6DF01D0DCCF929A95
S113033027D080916300813011F5D1DF8091620074
S11303408130E9F4C3DE809161008130C1F441D091
S113035080916000882341F48CEAA7DE00C000C0CD
S113036000008CEAA2DE089580916000813039F4A7
S11303708AEC9BDE00C000C000008AEC96DE089583
S1130380CF93DF93DCEFC1E083B380FD07C0AB9A6A
S113039081E080936300DF91CF9108959A99F4CF1F
S11303A0D2BB8FE79AE1A6E081509040A040E1F7EC
S11303B000C0000012BAC0936100809163008823DA
S11303C021F0809162008823F9F6C1DE64DFAFDF9B
S11303D0DBCF80916200813059F4909161009130BB
S11303E039F480916300813069F48093600008954A
S11303F0882341F080916100813021F08091630075
S1130400882329F410926000A2DE45DF90DF08956E
S113041026DE30DE4EDE789487EA91E60197F1F726
S113042000C0000084DFD5DEF1DE35DFFBCF1F9294
S11304300F920FB60F9211248F939F9380916800AF
S1130440909169000196909369008093680080916F
S11304506800909169008D33910531F5109269001F
S113046010926800809166009091670001969093C5
S113047067008093660080916600909167008A30DF
S1130480910521F481E0809365000EC0809166009F
S1130490909167008431910539F4109267001092AD
S11304A0660081E0809364009F918F910F900FBE4E
S11304B00F901F90189541D0A8F19E57A8F198511C
S11304C060F039F1983070F5092E9927660F771F7F
S11304D0881F991F0A94D1F71CC0BB27993F4CF47D
S11304E0B111B1E0B62B672F782F8827985FB1F749
S11304F008C0869577956795B79508F4B16093958C
S1130500C1F7BB0F30F411F460FF03C06F5F7F4F7E
S11305108F4F3EF490958095709561957F4F8F4FE6
S11305209F4F0895689424C022C057FD9058440FEB
S1130530551F59F05F3F71F04795880F97FB991F3E
S113054061F09F3F79F087950895121613061406FB
S1130550551FF2CF4695F1DF08C016161706180688
S1130560991FF1CF86957105610508940895E89463
S1130570BB2766277727CB0197F90895F894FFCF17
S9030000FC
